:020000040000FA
:1000000058162020C1020000C5020000C7020000EF
:1000100000000000000000000000000000000000E0
:10002000000000000000000000000000C902000005
:100030000000000000000000CB020000CD02000024
:10004000CF020000712E0000853100009D320000BB
:10005000CF020000CF020000CF020000CF0200005C
:1000600000000000CF020000CF02000000000000EE
:1000700000000000F13100004D3200009D31000011
:1000800045310000653100002531000035310000A8
:100090007531000055310000000000000000000034
:1000A000CF020000CF0200000000000000000000AE
:1000B000CF02000000000000CF020000CF020000CD
:1000C00000F002F800F0D1F812A030C80838241867
:1000D0002D18AC4201D100F0C8F80FCCA246AB46B7
:1000E0000CA730CF2D1B083F3F197C427F1E544484
:1000F0002D090426F441641EAC4201D300F0B5F88A
:100100000126334200D0FB1A3343984754465D46DC
:10011000DFE700005C4A00007C4A000000000000AD
:10012000103A02D378C878C1FAD8520701D330C840
:1001300030C101D504680C60704700000000000069
:100140007047000000000000002300240025002666
:10015000103A01D378C1FBD8520700D330C100D583
:100160000B60704710B56E2902D101F003F810BD85
:10017000702902D101F03DF910BD662902D104F0C9
:1001800073FB10BD652902D104F06EFB10BD672919
:1001900002D104F069FB10BD612902D104F06CFBAF
:1001A00010BD03681B0A01D380231943692902D1BA
:1001B00000F0AAFF10BD642902D100F0A5FF10BD18
:1001C000752902D100F0A0FF10BD6F2902D101F006
:1001D000BBF810BD782902D101F0F8F810BDE9296B
:1001E00002D101F057F810BDE42902D101F052F814
:1001F00010BDF52902D101F04DF810BDEF2902D153
:1002000001F0AEF810BDF82902D101F0EDF810BDF3
:100210000368DB0901D380231943632902D101F06C
:10022000D0FD10BD732902D101F0D3FD10BDE3292B
:1002300002D101F0DDFD10BDF32902D101F0E0FD96
:1002400010BD002010BD1FB501F040FE04000020CD
:10025000002104F0F3FA401C60600020002104F04B
:10026000D7FAE0601FBD10B510BD01F007FE1146C2
:10027000FFF7E9FF04F054F802F09CF903B4FFF72C
:10028000F2FF03BC03F0A6F870B505460C4616460F
:1002900002E00FCC0FC5103E102EFAD2082E02D36A
:1002A00003CC03C5083E042E07D301CC01C5361F7D
:1002B00003E021782970641C6D1C761EF9D270BD94
:1002C00006480047FEE7FEE7FEE7FEE7FEE7FEE73B
:1002D00003480449044A054B70470000C100000070
:1002E000580220205816202058062020580620208A
:1002F0000FB41CB5084B06AA7B44694600900598CC
:1003000000F051FF04460020694600F05FFF2046E0
:100310001CBC08BC04B01847D10E000030B5441C0A
:1003200003E00178401C00290DD08107F9D10B4B67
:10033000DD0104C8D11A91432940FAD0001B0A06F6
:1003400003D0C01E30BD001B30BD0A0401D0801E8A
:1003500030BD0902FCD0401E30BD0000010101018A
:10036000F8B5042A2CD3830712D00B78491C0370EC
:10037000401C521E83070BD00B78491C0370401C95
:10038000521E830704D00B78491C0370401C521E78
:100390008B079B0F05D0C91ADF002023DE1B08C97D
:1003A0000AE0FFF771FFF8BD1D4608C9FD401C4675
:1003B000B4402C4310C0121F042AF5D2F308C91A06
:1003C000521EF0D40B78491C0370401C521EEAD414
:1003D0000B78491C0370401C012AE4D40978017091
:1003E000F8BD01E004C0091F0429FBD28B0701D529
:1003F0000280801CC90700D00270704700290BD012
:10040000C30702D00270401C491E022904D383078F
:1004100002D50280801C891EE3E70022EEE700225D
:10042000DFE70000002203098B422CD3030A8B4232
:1004300011D300239C464EE003460B433CD40022DC
:1004400043088B4231D303098B421CD3030A8B42EE
:1004500001D394463FE0C3098B4201D3CB01C01ABC
:10046000524183098B4201D38B01C01A5241430987
:100470008B4201D34B01C01A524103098B4201D375
:100480000B01C01A5241C3088B4201D3CB00C01AE2
:10049000524183088B4201D38B00C01A524143085A
:1004A0008B4201D34B00C01A5241411A00D201467F
:1004B0005241104670475DE0CA0F00D04942031018
:1004C00000D3404253409C46002203098B422DD367
:1004D000030A8B4212D38901FC2212BA030A8B420F
:1004E0000CD3890192118B4208D3890192118B425E
:1004F00004D389013AD0921100E08909C3098B42E3
:1005000001D3CB01C01A524183098B4201D38B0125
:10051000C01A524143098B4201D34B01C01A5241C8
:1005200003098B4201D30B01C01A5241C3088B420D
:1005300001D3CB00C01A524183088B4201D38B00F8
:10054000C01A5241D9D243088B4201D34B00C01A82
:100550005241411A00D201465241104663465B1097
:1005600001D34042002B00D54942704763465B10DF
:1005700000D3404201B50549002802DC491C08406F
:1005800000E00846C046C04602BD00BFFFFFFF7F37
:100590007047704770470000F0B50C46871A9C41C1
:1005A0000D46861A9D4103D2C01BA141D219634159
:1005B0000D0D1F0DC94EEC1BAE435CD07F057F0DAA
:1005C0000026002F51D02D05AC46A943DD020123A2
:1005D000ED0A1B051D4320231B1B24D41746E740AF
:1005E000381871412F46E740CC199D4028183146F4
:1005F00061410C0D27D161449A4013D50023401C62
:10060000594152000ED14008400001224B005205D2
:10061000D34207D305204007C14201D5B04900E0CD
:10062000B0493046F0BD6B00002A00D001229A1874
:100630001F23203C1B1B01D5002302E0E5402818A6
:1006400071410C0DD7D0012424050919C407CD0729
:1006500040084908E40F28436144002CD5D0002409
:10066000401C61419A40D0D1CDE76A05520DD9D1E5
:10067000C90FC907D5E79C4D4E00002801D00124C1
:1006800000E0002434195F00002A01D0012600E0B8
:100690000026BE19954FAC420CD8AE420AD8B442DF
:1006A00006D001256D05EC42BCD010461946F0BDC0
:1006B0009942FCD000203946F0BDF0B51FB40C467D
:1006C0000F46811A9F412546861A9D4106D2012573
:1006D000ED076F40401ABC4152187B41210D1E0DA1
:1006E0008D1BAC467D4D8D437ED075056D0D7CD048
:1006F0000D05AE46AC431B031B0B794D52429D4189
:10070000202366469B1B14D31746F7403818002653
:100710000090744160462F460741E41900989D40BF
:100720002818664116D4714671189A4025D50123C0
:1007300020E093182A466A415200002B00D0521C38
:100740001E23203E9B1B002B61DD3541EE17281830
:100750006641E8D5001876415B1C9A4000D3401CE6
:100760004B05F3181524E34010D3002B52D07146EB
:100770007118D30FC01802D3491C05B0F0BD012376
:10078000DB079A42F9D140084000F6E70122520502
:10079000B21801D1002853D00123CC0ADB029943BF
:1007A000891E002A08D1020C03D0020C0004103963
:1007B00002E00246002020390023550B05D1120229
:1007C0000823550B01D152010D23550C01D1120103
:1007D0001B1DD50C01D192009B1C150D01D152009F
:1007E0005B1C2025EE1A01E02CE022E00546F540D6
:1007F00015439840CA1AE10769181305C918002A59
:10080000BBDA032040070818C10FC9070FE0714683
:100810006118B2E7F10740080843711071444A00BB
:100820000CD001235B059A42A7D2C90FC90700204B
:10083000A3E74905490D26D1002001E00028F4D1A5
:1008400000219AE7284D6600002801D0012100E030
:10085000002171185F00002A01D0012600E0002667
:10086000BE19224FA94210D8AE420ED8B14208D0CC
:1008700001256D05E94206D01946A80241401046FF
:100880007BE79C4201D0214677E70020394674E798
:1008900010B50C465C4005D50124E4076340FFF722
:1008A0000CFF10BDFFF778FE10BD30B40C465C4065
:1008B00004D50124E407634030BC6DE630BCFCE69F
:1008C00070B50124E40761400D465D4002D4FFF796
:1008D00063FE70BD6340FFF7F0FE70BDFF070000D0
:1008E0000000F0FF0000F07F0000E0FF0000F87F54
:1008F000F0B5F94D0C091E092C402E402F468BB047
:10090000A7437DD0B543FCD0002E7AD0002CFCD07C
:100910000D465D40ED0F2543AC1BFF25AD0464196A
:100920000894C502440DC9022143500DDC02044362
:100930000120C00701430443D2020191200C110C95
:1009400000958C46010423468B430A9161460904B5
:10095000E24D8A430991010A7D4449198039097899
:1009600005464D4301266D18F605751B6943C90CF4
:10097000640B891C4C436418B5012C1B250C2E04F8
:10098000B4434C434D43210C691889090591009DDE
:10099000E90701D00121C90704912C460199670894
:1009A000CD072F434C08059DE10B4D432D0C2946E7
:1009B0006646754302950D4645432E46029D7D1BB6
:1009C000B44100950D465D4301942C0C2F040D4657
:1009D0005543AE462D0C3D43029503947546049C49
:1009E0002D04641B049406D2029C039D641C002603
:1009F00075410395029401AC70CC009F7D1B01E012
:100A00003EE162E1B4410904009507910194059922
:100A1000A4086143090C0C464443650BE7040C46EB
:100A200066467443A646640B3C43039502947446A1
:100A3000049DE4042C1B049406D2029C039D641CB8
:100A4000002675410395029401AC70CC009F7D1B7C
:100A5000B44101940C465C430095650FE7000C46D9
:100A60005443A646640F3C43039502947446049D88
:100A7000E4002C1B049406D2029C039D641C0026F7
:100A800075410395029401AC70CC009F7D1BB4416D
:100A9000AE09AF06049DC900AD092F43049DA4060D
:100AA000AD060495079D344369180791059DE10B38
:100AB0004D432D0C29466646754302950D46454328
:100AC0002E46029D7D1BB44100950D465D43019469
:100AD0002C0C2F040D465543AE462D0C3D4302957C
:100AE00003947546049C2D04641B049406D2029C56
:100AF000039D641C002675410395029401AC70CCE3
:100B0000009F7D1BB44101948C050694079C890AC3
:100B1000611800950791019C0599A4086143090C8F
:100B20000D464543680BEF040D46644665436C0B68
:100B30003C43049FED047D1BAC4602D20025641C9F
:100B40006841009E019D371B854108465843019529
:100B50000C46460FC5005443600F28436546E40029
:100B60002C1B02D20025401C6E41019D3F1AB5414D
:100B70002846BD09800628438446A009BF064E02C8
:100B80000699A40676180743079D002068410A9934
:100B9000079019430020099B00906046FF191343FA
:100BA0004041E20F64003A43A4460446D71A8C4100
:100BB000A04203D90120009020463A46C70F94185E
:100BC00040416246D20F2243644664000494009C74
:100BD000BE466400D71AA446044602978C41774665
:100BE000002F01D1A04204D96046401C8446029ADD
:100BF0002046C40FA64694184041049A0546D20FD9
:100C0000224364466400D31A8D417146002901D104
:100C1000A84202D928461A46641C10430122002823
:100C200000D0164361020020079B891904465C41ED
:100C30000223002C02DB491813466441089DCE0AAA
:100C40002D145D194B056705E10A2C050D1908994E
:100C50003E43C9076940002B08D0934006D30022C9
:100C6000761C5141002B01D1760876001C4A002DDC
:100C700043DB154241D0AA433FD030460BB0F0BD14
:100C800006180D464D41174C7642AC411AD39518C3
:100C90001C465C41134A6D42A24113D30122520506
:100CA0004C00D4420AD15C00D4420BD04B4002D558
:100CB00092021143E2E749004908DFE75940C90FB2
:100CC000C90718E000200849D8E7054801420DD1BE
:100CD0000342F7D0F2E700000000FF072C3F0000BE
:100CE0000000F07F0000E0FF0000F87F114859404D
:100CF0000143C01241400020C0E70123089A9B062F
:100D00009A4205DC032252078918C90FC907B5E7C3
:100D1000052252078918074A1143D2125140ADE704
:100D200070B515461C4602460B4628462146FFF77D
:100D3000DFFD70BDFFFFFF7F30B50346CA02400DE7
:100D40001043164D164C0A1502D02043002A06DB2C
:100D5000AA1A002A12DDD040FF2A0BDC30BD520552
:100D6000520D01D140004008AA1A07D4D040404299
:100D7000FF2A01DD002030BD0028FCDD4A00002BE9
:100D800001D0012000E00020101801225205D042BD
:100D9000F0D8C817C043604030BD00001E040000FA
:100DA000000000801F22030C02D10F22000402D099
:100DB000030E03D004E00020014670470002083A09
:100DC000030F01D10001121F830F01D18000921E79
:100DD000002801DB4000521E120551184205C012C6
:100DE000411810467047C10FC90700D04042012288
:100DF00092071143D6E701218907D3E7F0B58B4C61
:100E00000F09254689B0BD437BD01D092646AE4358
:100E1000FAD00E465E402740F60F3E43254071D083
:100E200024012142FBD0FF24AD19A4042D1B0395FE
:100E300001252D05DB02DB0AC9022B43C90A294320
:100E40001E010901040F130F050121431701880B2F
:100E5000820391432D098C46A90B1E438A039543B7
:100E6000B30B9A0396433F09BA0B9403A743029628
:100E70002E467E430497B6464E19D7190C46019666
:100E8000544305977E43371B7646BF1B3601B64653
:100E9000BE0B361900967646BC043719009C01D368
:100EA000641C00946400002F01D001263443029E8C
:100EB000049F754366467E430496760034196E009F
:100EC00034190094029C019E1C196643751BAE46A2
:100ED000069465464519059C05956C43594375462E
:100EE0000891691A0191049E01465143A41B049183
:100EF000611A009C0791E10605D0610901221143A6
:100F000002E072E06EE06109089D00272C0A2D06C0
:100F10006918049D7C412A0A2D066918019D6241C9
:100F2000AC0DAD026D185441079A910D92025519FE
:100F30006141029A644658435443069B059A5A43BA
:100F4000121A131B9A0E9B015B187A41010B0005C4
:100F5000C3185141220A200644195A419A4200D22C
:100F6000491C01204002814203D315230226F64387
:100F700002E014230326F6432020C51AA940174691
:100F8000AF40DA400A4320460399D8400914731849
:100F900019055118039A3843D2075140AC4009D083
:100FA0000122944006D30022401C5141002C01D163
:100FB000400840001E4A934212D301220398920631
:100FC000904207DB0520400709181A480143C01268
:100FD000414004E0032040070818C10FC907002062
:100FE00009B0F0BD0020F107FAE705180C464C41A6
:100FF00011486D42A04115D394181A465A410E4823
:10100000644290410ED301204A004005824209D338
:101010005A00824206D35940C90F084AC907002026
:101020001143DDE700200649DAE700000000FF0772
:10103000FE070000FFFFFF7F0000E0FF0000F07FE1
:101040000000F87F70B5044685690068C10601D5C7
:10105000302600E02026C00707D070BD6268304609
:10106000A1689047206A401C20626D1EF6D570BDB5
:1010700070B5044685690078C00707D170BD626805
:10108000A16820209047206A401C20626D1EF6D582
:1010900070BD09684A0501D540B27047C905FCD545
:1010A00000B2704709684A0501D5C0B27047C9054A
:1010B000FCD580B2704770B50C460546012A05D0B4
:1010C0002878800600D5EA69002302E0012305E0C4
:1010D0005B1C934202D2E05C0028F9D1A869E618B3
:1010E000C01AA861286AC01828622846FFF7AAFF1C
:1010F00004E06A682078A968641C9047B442F8D379
:101100002846FFF7B5FF70BDF7B5002575291068B3
:10111000009914A611D0FFF7BCFF002802DA404264
:1011200011A608E0009909688A0701D50FA602E018
:10113000490704D50EA6012501E0FFF7B3FF009F84
:101140000024243704E000F080FE30313955641C5F
:101150000028F8D12B4632462146009800F057FA75
:10116000FEBD0000000000002D0000002B0000006C
:101170002000000011680268006A530501D508705C
:1011800009E0D30501D5088005E0130602D5C21792
:1011900005C100E0086001207047000001694A1C99
:1011A00002610878704700B58FB002910021059167
:1011B000054901937944039111460490684600F073
:1011C00025F90FB000BD0000E5FFFFFF0A681070B1
:1011D000521C0A6070470000F7B50446154686B0F9
:1011E0002B487844002703C83E460090019111E047
:1011F00007986A467100415A02A800F005FE411C9A
:1012000007D02178890603D5E269391891420ED8B2
:101210003F18761C2078800602D5E069B84206DDCA
:10122000AE42E5DB07987100405A0028E0D1A06982
:10123000C01BA0612046FFF705FF154878445A38C7
:1012400003C800900020019116E041006A4607980B
:10125000415A02A800F0D8FD0590401C0AD0002594
:1012600005E0626802A8A168405D90476D1C059882
:101270008542F6D30498401CB0420490E5DB206A16
:10128000C01920622046FFF7F3FE09B0F0BD000050
:1012900022370000F7B5D21D0025D20815A6D200CE
:1012A000F52905CA11D0002A05DA002140429141F2
:1012B00011A60A4608E0009909688B0701D50FA618
:1012C00002E0490701D50EA601251146009F002422
:1012D000243704E000F05EF930323A55641C0246CF
:1012E0000A43F7D12B4632462146009800F08FF989
:1012F000FEBD0000000000002D0000002B000000DB
:101300002000000070B504460021243408E0550791
:10131000D2086D0F303565545D072A43DB08491C40
:1013200015461D43F3D10468002310A2250708D5F4
:1013300020252C400C4304D0C46901230CA2641E58
:10134000C46100F064F970BD10B504462146106810
:10135000FFF7A8FE002302462046FFF7D3FF10BD8B
:10136000D21DD108C9000CC9CCE700000000000064
:1013700030000000F8B50F460188090502D5224C5F
:101380007C4402E0204C7C440E3405460021243588
:1013900008E016071209360FA65D6E541E07324389
:1013A0001B09491C16461E43F3D12246047800232C
:1013B000240705D5702F06D0002901D00223113251
:1013C00000F025F9F8BD01231032F9E770B50446A5
:1013D0000D4621461068FFF765FE002302462946A8
:1013E0002046FFF7C7FF70BDD21DD308DB000CCB32
:1013F000C0E730B403682024126823430360082345
:10140000C36130BC0023B5E78C350000F3B504465A
:10141000002081B020622046E1688847002872D011
:10142000252802D06268A168ABE0594F00267F44AE
:101430002046E16888472028054608DB312D06D282
:10144000781920380078002801D00643F0E7B0076B
:1014500001D5042086430020E0610746A0612A2DC3
:101460000AD0284603F0CCF9002827D0B80000198C
:10147000303D0090856119E00298BA00121902C847
:10148000916102902046E1688847012F054617D1F7
:10149000E06900281FDA202086431CE000980A211A
:1014A0008069484300994019303888612046E168D6
:1014B0008847054603F0A4F90028EFD1012F0AD090
:1014C0002E2D08D12046E168884705462020064396
:1014D0007F1C022FC3DBA069002803DA4042A06111
:1014E00001200643F00701D0102086436C2D0BD05D
:1014F000682D09D04C2D3CD06A2D38D0742D38D0B1
:101500007A2D36D016E040E0E1682F462046884725
:10151000B842054609D16C2F29D001208002E1682C
:10152000064320468847054604E06C2F1DD0FF2067
:1015300001300643002D28D028464138192803D809
:101540000120C00206432035204626602946029A23
:101550001646FEF707FE002810D001280BD0F61D16
:10156000F008C0000830029055E74020E1E78020F5
:10157000D5E70020D3E7361D02964CE7626828467F
:10158000A1689047206A401C44E7206AFEBD000025
:10159000063500000B4670B50246890780080843EF
:1015A00019469D08141AA941250908070543080989
:1015B0002C194841250A01060D43010A2C19414105
:1015C000200C0D0428430D0C00194D410021401939
:1015D0004D41C00869070843E908840F8D00254381
:1015E000840024184D4124196D41121BAB4107E0C2
:1015F0000925ED432C11521963410024401C61411F
:101600001C460A250026551BB441F1D270BDFFB51A
:1016100004460D4681B0243000902168880604D528
:101620001022E0699143216000E00120A84201DD21
:10163000471B00E000270498A1697A191018081ABE
:10164000A0612078C00602D42046FFF7FBFC0026EC
:1016500008E003986268A168805D9047206A401C9A
:10166000761C206204988642F3DB2078C0060AD5F7
:101670002046FFF7E7FC06E06268A168302090474B
:10168000206A401C206238467F1E0028F4DC07E0F8
:1016900000986268A168405D9047206A401C206203
:1016A00028466D1E0028F3DC2046FFF7E1FC207879
:1016B000000602D5022005B0F0BD0120FBE70000C6
:1016C000FFB50C461E468FB003CA089009914F0023
:1016D0007D0D00D16D1E002108460020C04603216B
:1016E000099A89050840002A03DA82008018400818
:1016F0000840800D01280A9002DD0020C0430A90B6
:10170000089807430DD0F048F049281848430714BB
:10171000189800281DD07542291E1DDD0A984242E6
:101720001BE01898012802D00020302104E000209E
:10173000F24305E02154401CB042FBDB304600225E
:10174000189B002121540F998B600A60486013B0E8
:10175000F0BDBD1B6D1CDFE70A9A002900DA694263
:101760000BA800F0FBFB0BAB07CB03AB07C308993F
:10177000099800F05FFC6B4607C30146D44809187E
:10178000002D00910BDDD24903980A9A4942401876
:10179000002303A90390684600F0BCFE08E003990B
:1017A0000A9A0023081803A90390684600F05CFE1B
:1017B0006B4607C30004000C03D00020C04341085F
:1017C00000E01046189A002A03D000220092154625
:1017D0001EE0751E05D4FFF7DDFE303262556D1E2A
:1017E000F9D501220843079602D000227F1C04E0AD
:1017F0002078302801D100227F1E002A069787D04A
:101800001EE0112D07DAFFF7C5FE303262556D1C60
:1018100002460A43F5D1084303D00098002819D0A6
:101820000EE00021681E05E0235C625C63542254D4
:10183000401E491C8142F7DBA81B401E07950690FD
:10184000079A18990020A0540F98079B069A816068
:101850000CC07CE711260020189059E7D21DF0B586
:101860000D460446D10893B0C90003C90C900D91F0
:1018700002F0B0FF02460D98C00F01D02D2007E006
:101880002068810701D52B2002E04007C00F4001EE
:10189000032A0F9001D0072A05DB0346294620467C
:1018A00000F018FB0EE12078800601D5E76900E022
:1018B00006272846652D04D0662814D0672D69D1E7
:1018C0002DE00020112F009001DB112300E07B1C94
:1018D0000CAA03A910A8FFF7F3FE1199002610988F
:1018E0007D1C0E9142E001203B460CAAC0070B90E4
:1018F0000120009003A910A8FFF7E2FE119D1298A5
:101900001099002600280E9501D1781C0D18781B1F
:1019100002D446427D1C761EE81B00903AE0012F5F
:1019200000DA01270020112F009001DD112300E0D3
:101930003B460CAA03A910A8FFF7C2FE11993D4629
:10194000109800260E91217809070BD40E99A94210
:1019500000DA0D4603A9012D04DD4A19203AD27F91
:10196000302A06D0B84201DA011D04DA01210091C3
:101970000FE06D1EEFE7002802DC86192D1A03E048
:10198000411CA94200DD0D46801B401C0090012037
:10199000C0070B902078000705D40098A84202DB0E
:1019A0000020C043009069460020C8720B980121B6
:1019B00002AF0337C907884225D0022010902B20A0
:1019C00011900B9800280BDA40420B902D201190BB
:1019D00006E00B9800F039FA30317F1E0B90397019
:1019E0001099481E00291090F3DC0B980028F0D1C4
:1019F00011987F1E38702088000501D5452000E031
:101A000065207F1E387001A8C01BC01D0B900F9869
:101A1000002800D0012041190098C01709180B9820
:101A20000818A169081A401EA0612078C00602D4D7
:101A30002046FFF707FB0F98002805D06268A168D1
:101A40009047206A401C20622078C00625D5204699
:101A5000FFF7F8FA21E0002E07DB0E98B04204DD14
:101A600003A86268805DA16802E06268A168302016
:101A70009047206A761C401C20620098401E002877
:101A800000900AD100F022FAC06862680168405CE8
:101A9000A1689047206A401C206228466D1E0028DD
:101AA000D9DC07E062683878A1687F1C9047206A1B
:101AB000401C20620B99481E00290B90F2DC204646
:101AC000FFF7D6FA032042E601FCFFFF104D0000AD
:101AD000E1DFFFFFD21DF0B504460D46D0088DB002
:101AE000C000466807683146384602F073FE024679
:101AF000F00F01D02D2307E02068810701D52B23AB
:101B000002E04007C00F43016846002B037001D07C
:101B1000012000E00020032A0A9001D0072A04DBFC
:101B20002946204600F0D6F92DE12078800601D420
:101B30000D2500E0E5697000400D0D2D01904BDA98
:101B4000300D00210B9008460020C0460321890576
:101B50000840002E05DA82008018C20F10184010CD
:101B600008408015012801DD0020C043A9000023A2
:101B7000182906D39C460A460123183A1B07D3406E
:101B800003E001221205CA4094460C31202902D3F9
:101B90003A46203900E032468A40002802DD002A19
:101BA00006D119E0002817D10121C9078A4213D3B1
:101BB000194663467F185E41002806D10120C00700
:101BC000824202D1084687439E430B98310D8142E1
:101BD00002D00198401C01902088000502D571496F
:101BE000794402E06F49794419396B460A983022EA
:101BF0001A540A980A7C401C1A54401C0A900198F6
:101C0000002801DC302000E031201872019A012008
:101C1000002A02D0644BD21804E072003A4302D08A
:101C2000614A521C0192002D02DC2278120703D572
:101C30006A462E20507202200022864694460CE00E
:101C400032033601120F6D1E8B5C02AA13546246DA
:101C5000521C401C9446052A01DA002DF0DC0022BB
:101C600002AE08E03B0F3F01CB5C521C6D1E3354AB
:101C7000401C082A01DA002DF4DC23689A0601D5FD
:101C800011E0401E704504DD3218203AD27F302A20
:101C9000F7D0002807DD3218203AD27F2E2A02D151
:101CA0001A0700D4401E002D03DD3E223254401C92
:101CB0006D1E497C31540199401C002906DA2D2102
:101CC000471C315401984042019003E02B21471CEE
:101CD000315401987D21C900884206DBFEF7ACFB38
:101CE0003030F0557F1C019101E0642808DB019839
:101CF0006421FEF7A1FB3030F0557F1C019101E01B
:101D00000A2806DB01980A21FEF796FB3030F055D1
:101D10007F1C01980A21FEF78FFB3031F1550A989C
:101D2000A1697F1C7A191018081AA0612078C006D2
:101D300002D42046FFF786F9216A6E460A980818F1
:101D4000206204E062683078A168761C90470A98A7
:101D5000401E0A90401CF5D12078C00602D52046CE
:101D6000FFF770F902AE09E03078761C3E280DD0FE
:101D70006268A1689047206A401C20627F1EF3D2EF
:101D80002046FFF775F90DB00320F0BD206A401919
:101D9000206203E06268A168302090476D1EEDD399
:101DA000F8E70000782D000001FCFFFF10B5436943
:101DB000002B02D0C046C04601E0FFF77CF90120AD
:101DC00010BD1278014624310A7000224A700122A7
:101DD000ECE711680022D243E8E710B54369002B15
:101DE00002D0C046C04601E0FFF7F6F9012010BD61
:101DF00012880146243182840022C2840122ECE749
:101E000011680022D243E8E7F8B516460C460546AD
:101E100000F054F80368FF200230C05C012807D0AE
:101E2000FF2C0FD8185D00280CD001202C70F8BDB5
:101E3000FF333246214608331868C7182846002366
:101E4000B847F8BD0020C043F8BD01468008081A15
:101E500002091018020A1018020C1018C00882009B
:101E600012185200891A01E0401C0A390A29FBD2D3
:101E70007047000000487047D00020207546FFF7EB
:101E8000F9FFAE46050069465346C008C0008546C6
:101E900018B020B5FEF71CFA60BCB6460026002735
:101EA000C0C5C0C5C0C5C0C5C0C5C0C5C0C5C0C50A
:101EB000403D490849008D467047000010B500F0CC
:101EC00005F8001D10BD00BF7529000000487047CF
:101ED000F0002020F8B51F46044601230068DB020D
:101EE000032601461840072A05DB002801D017A564
:101EF00006E017A504E0002801D016A500E016A50D
:101F0000102081432160A069C01E002FA06101D074
:101F1000401EA0612046FFF795F8002F09D03846F3
:101F20006268A1689047206A401C2062C01C206241
:101F300006E0206AFAE762682878A1686D1C90477D
:101F4000761EF8D22046FFF793F8F8BD4E414E00BA
:101F50006E616E00494E4600696E6600F7B5164622
:101F60008AB0334878446C4603467C33C06F5A6865
:101F70009B680DC42E487844763003AC0DC80DC460
:101F80003720C001081837211B30FEF755FA0546E7
:101F90000C46803D1B3C02D56442012000E000203D
:101FA0000027099010E0E0070CD00C20204978436E
:101FB000794432464C3941186846012300F054FAFE
:101FC0006B4607C364107F1C002CECD1184F7F4474
:101FD0002E3F16E0E80712D02001C0190EC8069166
:101FE000089307920068F04201D198190890324690
:101FF000012306A903A800F037FA03AB07C36D104D
:10200000641C002DE6D10998002806D032466946A6
:10201000012303A800F07EFA05E001233246694659
:1020200003A800F021FA0A9B07C30DB0F0BD000021
:10203000082A0000034640000A4610B5400D0BD0A8
:102040000121C9070F24A40200191C0364082143BD
:10205000540D2143D20207E000210120F2E7D40F02
:10206000490021435200401E0029F8DADB0FDB074C
:10207000184310BDFFB50D46144685B04868516839
:1020800002F090FB00910190A868A16802F08AFB21
:1020900002910390A868616802F084FB029A12180A
:1020A0008242029201D2012000E00020019A0B1826
:1020B000D2180028019202D08A4202D903E08A4253
:1020C00001D2012000E00020009908180090686803
:1020D000A16802F067FB029A12188242029201D2B2
:1020E000012000E00020019A0B18D218002801926C
:1020F00002D08A4202D903E08A4201D2012000E0E4
:1021000000200099081800902868216840004900C4
:10211000400849084018FA49471814E0019940005E
:10212000C90F08430090019802994000C90F084365
:102130000190029803994000C90F08430290039848
:1021400040007F1E039000980028E7DA08980028D6
:1021500001D0EC4E00E00026B74201DA012000E099
:102160000020002804902AD0F71BF806C00E15D0D6
:10217000029B2021091A039A8B401A430392029A68
:10218000019BC2408B401A430292019A009BC240BD
:102190008B4000991A430192C14000917B110DD0F0
:1021A0006F460320C11A03D500218200B95003E015
:1021B0008A008100BA587A50401EF3D537460398FA
:1021C0000299002800D001200143089802910028BC
:1021D00008460CD0002800D001200199019A490539
:1021E00008430121D20AC902D202019200E0012172
:1021F0000E9B0122D207012B02D0002B03D013E04B
:10220000002807D120E0904204D890420CD1019BD5
:102210000B4209D0019B5918019105D10099491C25
:10222000009101D17F1C009200280DD0102108469A
:102230000020C0460498002806D00F98002803D03C
:10224000082108460020C04628682168019B009AA2
:102250004840C10F0598C90739430EC009B0F0BD09
:10226000FFB587B0099A0898089953689268406842
:10227000896896460022039317469446089A126886
:102280005300099A5B081268520052089A1A9E4B32
:10229000D4180A9A002A01D0352200E04022069282
:1022A0000022012315460492DB07059324E0002D4C
:1022B00005D175460346039E4D1BB34109D37546B0
:1022C0006646039B491B049D9841059B7519AC46C6
:1022D0005F4163463B4308D0059B049EDD077608BB
:1022E0002E435B080496059301E0521E641EC50F41
:1022F000ED0749184041521C069B9A42D7DB002D3E
:1023000004D17546039A6B1A824101D203200CE076
:10231000039A0B466B404240134303D0014303D062
:10232000012002E0022000E000206146019100212E
:10233000009702910A99002905D0614640020143A5
:10234000704B019102E08007002302909C4201DA69
:10235000012000E0002007003AD01A1BD006C00E72
:1023600015D0029D2021019C091AC5408C402543AF
:10237000029C8C4000D001242543019C0295009DC5
:10238000C4408D4000992C430194C14000915411E8
:102390001DD06D460221002202290CD10320001B12
:1023A00007E0002804DB8600AE59002E00D0012291
:1023B000401C0328F5DB081B02D588002A5004E0E6
:1023C0008000285810438A00A850491EE3D51C46B7
:1023D0000A98002802980CD0002800D0012001990A
:1023E000019A490508430121D20AC902D202019289
:1023F00000E00121109B0122D207012B02D0002B0B
:1024000003D013E0002807D11FE0904204D8904287
:102410000CD1019B0B4209D0019B5918019105D1A8
:102420000099491C009101D1641C009200280CD035
:10243000102108460020C046002F06D01198002821
:1024400003D0082108460020C04608980999019A3F
:10245000009B006809684840C10F0798C9072143DD
:1024600082600AC00BB0F0BD00B585B00193009248
:102470000A460146002302A8FFF7FCFD02A807C890
:1024800005B000BDFFB50A461F4685B00799019308
:1024900001230091014602A8FFF7ECFD0299039881
:1024A000049ECA0F4900D20700920F2249089202E7
:1024B0008C1A0021002800DB0C46450013486D08EB
:1024C000844214D3079A002A04DA441E0026104DD1
:1024D000F64302E004460D460E4610210846002051
:1024E000C046002F03D0042108460020C046200526
:1024F000E90A0843009908436905F20A1143ADE669
:1025000002C0FFFF013C0000FF3F0000FF0700008A
:10251000FFFFFF7F00B585B0019300920A46014698
:10252000002302A8FFF79CFE02A807C8A8E7FFB592
:102530000A461F4685B00799019301230091014681
:1025400002A8FFF78DFE02990398049ECA0F490066
:10255000D20700920F22490892028C1A002100280B
:1025600000DB0C46450011486D08844214D3079ADD
:10257000002A04DA441E00260D4DF64302E004460C
:102580000D460E46102108460020C046002F03D0FD
:10259000042108460020C0462005E90A08430099A6
:1025A00008436905F20A114358E60000FF070000DE
:1025B000FFFFFF7F10B50446C046C0462046FDF72A
:1025C0005DFE10BD024670B50A4392072AD11E4D2A
:1025D000EE0104C808C9541B9443344017D0D0B24C
:1025E000D9B2401A2106014310D190B299B2401AD3
:1025F000210401430AD110021902000A090A401AF3
:102600002102014302D1100E190E401A70BD9A42E8
:10261000DFD010BA19BA884201D9012070BD00205C
:10262000C04370BD02780B78401C491C002A09D0B9
:102630009A4207D102780B78401C491C002A01D02D
:102640009A42EFD0D01A70BD0101010181B0009013
:102650000098002809D0FFE70A4801680A4A88580C
:1026600001239B031843885009E006480168952020
:102670004201885801239B0318438850FFE701B0AB
:102680007047C046800020209012000081B000906A
:1026900000990120C2027C48885001B07047C046B2
:1026A00081B0009000997D4A7D48885001B0704704
:1026B00082B001900199881E001F00BFFCD20090DB
:1026C00002B0704784B003900291019203980068B1
:1026D0000090009801998843009000980299019A0F
:1026E000114008430399086004B0704784B0039018
:1026F0000291019203980068009000980199884324
:10270000009000980299019A1140084303990860CB
:1027100004B0704784B0039002910192039800685E
:102720000090009801998843009000980299019ABE
:10273000114008430399086004B0704782B00190CB
:102740000091009B0199034A88581843885002B0B1
:102750007047C0464810000082B001900091009878
:10276000019995225201885002B0704782B00190C1
:102770000091009B0199034A88581843885002B081
:102780007047C0462810000082B001900091009868
:102790000199024A885002B07047C046D01200002A
:1027A00081B0009000990120C2023748885001B0E2
:1027B0007047C04681B0009000990120C2023248A3
:1027C000885001B07047C04610B584B0069C039095
:1027D00002910192009302980199084300990843DD
:1027E000069908430349084303998900124A88500F
:1027F00004B010BD8100040010B584B0069C0390A5
:1028000002910192009302980199084300990843AC
:10281000069908438121084303998900064A885094
:1028200004B010BD81B0009000988100024A0020E1
:10283000885001B07047C0460480424081B000908B
:102840000099EF4AEF48885001B0704781B000907E
:102850000099EB4AEB48885001B0704782B0019074
:102860000091009B01999D2042018858184388508F
:1028700002B0704781B0009000990120C202DB488D
:10288000885001B07047C0460100002681B000901A
:102890000099DB4ADB48885001B07047040800000B
:1028A000030000B110B582B001900020009088496B
:1028B000086801221202904308602F4B18680090AC
:1028C00000982E4C20400090019804680098204306
:1028D0000090019844680098204300900198846813
:1028E0000098204300900198C4680098204300900D
:1028F0000198046900982043009001984469009869
:10290000204300900198047E009820430090019895
:10291000447E00982043009000981860184B186877
:1029200000900098174C204000900198C069040264
:1029300000982043009001982024045D00982043D3
:102940000090009818600198406A00680E4B18606B
:102950000198406A40680D4B186008681043086091
:10296000FFE700F033F8012149020840884201D016
:10297000FFE7F6E702B010BD20010B408C00F0FF2E
:1029800024010B40FC80FFFF28010B402C010B4071
:102990004F49086801229043086070474C49086815
:1029A00001221202904308607047C0467C490868C3
:1029B00001221203104308607047C04602490868AC
:1029C00010221043086070473C010B40014800682A
:1029D0007047C04604020B4081B001466846017052
:1029E00000780249086001B07047C04608030B40F8
:1029F00080B582B0014601A8018001880F20020243
:102A00006748FFF773FE02B080BDC04680B582B054
:102A1000014601A80170007801030F200203494814
:102A2000FFF764FE02B080BD85B0034604A80380B2
:102A3000039102A90A702449096801910199234A66
:102A40001140019100880090002812D0FFE7009803
:102A50000121090388420DD0FFE7009801214903B5
:102A600088420DD0FFE700980321090388420DD06A
:102A700012E011E0019801210903084301900BE0E5
:102A80000198012149030843019005E001980321C1
:102A9000090308430190FFE702A8007801221040D3
:102AA000411E884101070198084301900198064999
:102AB000086007490868104308600648086008680D
:102AC0001043086005B0704710010B40FFCFFFEFC7
:102AD00008010B400001010082B001901149086813
:102AE00000900098FF2214329043009001980078E3
:102AF00001221040431E98410302009818430090A1
:102B0000019840781040421E904102010098104305
:102B10000090019882780098104300900098086017
:102B200002B0704714010B4080B582B0014601A885
:102B300001800188012042020248FFF7D7FD02B060
:102B400080BDC04638010B4080B582B0014601A867
:102B50000170017802480322FFF7C8FD02B080BD72
:102B600000010B4080B582B0014601A801700178D8
:102B70000B483022FFF7BAFD02B080BD81B001469C
:102B80006846017000780549086005490868012217
:102B900012041043086001B07047C0460C010B409E
:102BA00004010B400949086805221043086070477A
:102BB00081B000900549042008600098401E044937
:102BC000086004490020086001B0704710E000E090
:102BD00014E000E018E000E081B0009000990120CE
:102BE000C2029848885001B07047C04601000026D4
:102BF00081B0009000999C4A5148885001B07047BC
:102C000004080000030000B182B001900091009818
:102C10000199024A885002B07047C046481000002F
:102C200081B0009000991120020288580123984336
:102C3000885001B07047000082B001900091009B65
:102C400001990F4A88589843885002B07047C0468F
:102C500081B0009000991120020288580123184386
:102C6000885001B07047000082B001900091009B35
:102C70000199034A88581843885002B07047C046EB
:102C80002810000081B0009000990120C2026D4818
:102C9000885001B07047C04681B0009000988121F3
:102CA00049014058C0B201B07047000080B582B001
:102CB000019000910198FFF7B3FF019811210902DB
:102CC0004018009A11889378194392881143084A52
:102CD000FFF720FD01982D494018009A9179D3798A
:102CE0001943127A11437E22FFF714FD02B080BD12
:102CF0001867020081B000900098474940580121B0
:102D0000084001B07047C04681B000900098424929
:102D1000405804210840800801B0704781B00090FD
:102D2000009802494058C0B201B070472411000019
:102D300081B0009000994C4A0148885001B070471A
:102D4000030000B180B584B0039002910192039812
:102D50000B49401802990B4AFFF7B4FC03980A4943
:102D6000401801993F22FFF7ADFC0399074A8818E4
:102D7000895801221140FFF7A5FC04B080BDC04670
:102D800010110000FFFF00001411000004110000EA
:102D900082B001900091009800780199044A88500F
:102DA00000984078019901221203885002B07047C0
:102DB0000810000080B582B00190009101981121A7
:102DC0000902401800990322D203FFF77BFC02B0EE
:102DD00080BD82B001906846017000780199892217
:102DE0005201885002B0704782B001900091009962
:102DF00008784A7810434988084301991122120241
:102E00008850009948688968090408430199024A72
:102E1000885002B07047C0460811000081B0009091
:102E200000990120C2020748885001B07047C0468F
:102E300081B0009000990120C2020248885001B080
:102E40007047C0460100002681B000900099064AF4
:102E50000648885001B0704781B000900099024A3E
:102E60000248885001B0704704080000010000B11A
:102E700080B584B003A90020087002A908704C48EE
:102E8000006881214901405801900198002830D004
:102E9000FFE70198411E03A8017000780F280EDC9F
:102EA000FFE7434800683149405803A909780907FA
:102EB000C90EC8400321084002A908700EE03C4832
:102EC00000689D214901405803A909780907C90EE6
:102ED000C8400321084002A90870FFE703A8007852
:102EE00083002348C25802A800782249C958904755
:102EF0003AE02F48406881214901405801900198EB
:102F0000002830D0FFE70198411E03A80170007827
:102F10000F280EDCFFE7264840681449405803A9F3
:102F200009780907C90EC8400321084002A90870A2
:102F30000EE01F4840689D214901405803A90978C7
:102F40000907C90EC8400321084002A90870FFE71D
:102F500003A8007883000648C25802A800780549F3
:102F6000C9589047FFE7FFE704B080BD9013000009
:102F700000002020A001202081B0009000980028AF
:102F80000AD0FFE70A4801689520420188580123CA
:102F90009B031843885008E005480168054A885893
:102FA00001239B0318438850FFE701B07047C046D8
:102FB000800020209012000080B50E2010210022F9
:102FC000112301F05DF880BD80B588B00920FFF7BE
:102FD00029FC0A20FFF726FC0720FFF723FC082026
:102FE000FFF720FC002302930093012005900204C8
:102FF000039223201946FFF7FFFB0299039A0598D5
:103000000091C3042720FFF7DFFB0598810304919B
:1030100041480690FFF7A0FB04990698FFF7B4FB20
:1030200006981021FFF71AFC059906988904079164
:10303000FFF784FB06980799FFF798FB08B080BD5F
:1030400080B582B000200190FFF7C6FC012040024D
:10305000FFF7CEFC0198FFF777FDFFF799FCFFF72C
:103060009DFC019A032000031146FFF7DDFC0C488C
:10307000FFF718FC1020FFF775FD0920FFF7C6FCCD
:103080000848FFF729FDFFF791FCFFF797FC01982F
:10309000FFF74AFD0198FFF771FD02B080BDC04601
:1030A000084A0000044A000080B55020FFF780FD68
:1030B000FFF778FD80BD000080B502491848FFF792
:1030C00093FE80BD304A000080B500F009F8FFF79C
:1030D0007BFFFFF7B5FFFFF7EFFFFFF7E5FF80BDD1
:1030E00080B584B00C480190FFF7B0FB0B4802900C
:1030F000FFF7ACFB0A480390FFF7AEFE0198FFF71D
:1031000059FB0298FFF756FB0398FFF791FE10203A
:10311000FFF7CEFA04B080BD00000A4000200A404C
:103120000000034080B51B4802681B48016800206E
:10313000904780BD80B51748426817484168002015
:10314000904780BD80B5134882681348816800208D
:10315000904780BD80B50F4882690F488169002083
:10316000904780BD80B50B48C2680B48C1680020FD
:10317000904780BD80B50748026907480169002073
:10318000904780BD80B503484269034841690020EB
:10319000904780BD240220208800202080B582B086
:1031A0001148FFF779FD014601910B280BD0FFE78D
:1031B00001980C2810D1FFE74A4802684A48016884
:1031C0000220904709E0474802684748016801200B
:1031D000904700F0E3FA00E0FFE704480168024886
:1031E000FFF712FD02B080BD00801040309010400B
:1031F00080B582B01248FFF74FFD014601910B28C0
:103200000BD0FFE701980C2811D1FFE73548426841
:1032100035484168022090470AE032484268324807
:1032200041680120904707480068804700E0FFE7B9
:10323000054801680248FFF7E7FC02B080BDC046C0
:1032400000001040C80020203010104080B582B02F
:103250001048FFF721FD014601910B280BD0FFE735
:1032600001980C280ED1FFE71E4882681E4881682D
:103270000220904707E01B4882681B4881680120B4
:10328000904700E0FFE7044801680248FFF7BCFCF4
:1032900002B080BD002010403030104080B582B0B8
:1032A000F948FFF7F9FC014601910B280BD0FFE725
:1032B00001980C280ED1FFE70A48C2680A48C16885
:1032C0000220904707E00748C2680748C16801200C
:1032D000904700E0FFE705480168EB48FFF794FCE2
:1032E00002B080BDA40020204002202030105040B9
:1032F00081B00146684601700021405600280DD477
:10330000FFE7684601781F200140012088400449FA
:103310000860BFF34F8FBFF36F8FFFE701B07047B7
:1033200080E100E081B0014668460170002140560E
:10333000002809D4FFE7684601781F2001400120DA
:10334000884002490860FFE701B0704700E100E0F3
:1033500070B582B0024601A802700091002140566B
:10336000002816D4FFE7002401A908570322D343FD
:103370001840174A805809578C07E50EFF24AC40C7
:10338000A043009CA401E4B2AC4020431940885003
:103390001AE001A908780F24204008380322D343FB
:1033A00018400A4A8058002549578D07EE0EFF2520
:1033B000B540A843009DAD01EDB2B5402843214082
:1033C000083919408850FFE702B070BD1CED00E0DD
:1033D00000E400E081B0009001B0704710B58AB001
:1033E00009AC207008A8017007A90A7006A90B7023
:1033F000007810280AD1FFE708A8017806A800780D
:10340000014001201029029014D0FFE708A801789C
:103410000020002901900AD1FFE708A8007806A93A
:10342000097808401038411E88410190FFE7019853
:103430000290FFE70298012108403A49D82200F0A3
:103440002DF909A80178490905AA117000781F21F2
:10345000084004A9087007A800780390039832492F
:103460000843039006A80078401E009013284BD80C
:103470000098810001A040588746C046CD34000026
:10348000D3340000D5340000E134000009350000D9
:103490000935000009350000093500000935000034
:1034A0000935000009350000093500000935000024
:1034B000093500000935000009350000ED34000031
:1034C000EF340000FB340000FD34000000200390C6
:1034D0001AE019E00398012109040843039013E05E
:1034E000039801214904084303900DE00CE0039880
:1034F000012149060843039006E005E003980121F5
:10350000490608430390FFE7039805A90978490194
:1035100004AA12788A180549895C8900044A8850EF
:103520000AB010BD094B0000800004003C4A0000B6
:103530000480424080B582B0019000F009F8FFF7A6
:10354000C3FD00F0DDFE00F01CFF02B080BD0000F6
:1035500080B592B040480090FFF770F93F48019065
:10356000FFF76CF90098FFF71BF90198FFF718F9BE
:103570003B480290FFF73CFB3A480390FFF738FBCB
:103580000298FFF729FB0398FFF726FB36480490C3
:10359000FFF72EFB35480590FFF72AFB34480690CD
:1035A000FFF726FB33480790FFF722FB32480890CD
:1035B000FFF71EFB0498FFF70FFB0598FFF70CFBC6
:1035C0000698FFF709FB0798FFF706FB0898FFF737
:1035D00003FB2A480990FFF7ABFB29480A90FFF745
:1035E000A7FB28480B90FFF7A3FB27480C90FFF799
:1035F0009FFB0998FFF746FB0A98FFF743FB0B98E0
:10360000FFF740FB0C98FFF73DFB20480D90FFF7BC
:103610003DF91F480E90FFF739F90D98FFF72AF989
:103620000E98FFF727F9012080070F90FFF738F871
:1036300018481090FFF734F80F98FFF727F8109804
:10364000FFF724F814481190FFF7FEFB1198FFF7DD
:10365000E5FB12B080BDC04600000A4000200A40D1
:1036600000008640002086400040084000808640E0
:1036700000A0864000000940000087400080104004
:1036800000001040002010400000504000804640E4
:1036900000A04640002000400000034080B584B0F8
:1036A00003AB187002910192FFE703A8007800288D
:1036B00005D1FFE710480078002801D1FFE718E0A6
:1036C0000E480078002802D0FFE7FFE7FEE70B492D
:1036D0000878401C087000F003FE00F051FAFFE784
:1036E0000299019A0648002300F06AF800F00AF8EF
:1036F000F6E704B080BDC046CC0020203001202079
:10370000BB4A000082B00020019000900190FFE7CA
:103710000198FF2813D8FFE700200090FFE70098EA
:10372000000C002806D1FFE700BFFFE70098401C0F
:103730000090F4E7FFE70198401C0190E8E702B031
:103740007047000080B588B003A8019000F0FEF932
:1037500001980E49059100F0D5F9E12041020020C1
:1037600002900B4A0B4B00F03DFE029913480A4AA7
:10377000402300F069FA0298042100F01FFF0F2097
:10378000012100F0BEFD08B080BDC046833B0000B3
:103790000A2000000B2000004801202080B582B0E4
:1037A00005490191002000F0DDFE01990348012246
:1037B00000F092FA02B080BD88012020890120200B
:1037C00070B5FFB0A5B0A390A291A192A0939EA9BD
:1037D000002008809DA908809CA9099108809BA9C8
:1037E00008809AA90880A298FCF798FD099908809A
:1037F000D4480088002804D0FFE7D24800698047F9
:10380000FFE7D1480078002800D16DE1CD4800885D
:10381000002800D145E1CB480890C3689AAA1188D6
:10382000481C1080A39A00209847A2989F90A298C5
:10383000FCF774FD08999CAA108048888979FCF7E8
:10384000F1FD9BA90880FFE79F98411C9F910021F3
:103850004056002801D0FFE7F6E79DA90020088028
:10386000FFE79DA801880020012907900DDCFFE7F4
:10387000002105919CA8415E01200029069001DAF3
:103880000598069006980790FFE70798C00700285C
:103890001AD0FFE79F98401E9F909F9800214056A6
:1038A0002F2806D0FFE79F98002140565C2805D1BD
:1038B000FFE79D98401C9DA90880FFE7FFE79C98C3
:1038C000401E9CA90880CCE700219CA8405E0028EF
:1038D00009D4FFE79F98401C9F909F9A86495AA859
:1038E000FCF706FD11E09DA80088002806D1FFE73F
:1038F0009F9A82495AA8FCF7FBFC05E09F9A7E49F3
:103900005AA8FCF7F5FCFFE7FFE79EA90020088016
:10391000FFE79EA8008804905AA8FCF7FFFC00224D
:103920009BA9895EFCF77EFD01460498491C8842EC
:1039300045D2FFE79DA900200880FFE79DA80088E9
:1039400000229BA9895E884224DAFFE75AA8FCF787
:10395000E5FC9DA909889EAA138800249BAA125FF2
:103960005A438918884201D2FFE713E09DA90888CD
:103970009EAA138800249BAA125F5A4382185AA851
:10398000805C0A884AA98854FFE79D98401C9DA93D
:103990000880D3E79DA801884AAA002050546949AD
:1039A000CB68CC799A994D1C9AAE3580614389B227
:1039B0009847FFE79E98401C9EA90880A9E7A19A16
:1039C0004F495AA80390FCF793FC039A5D48C368DB
:1039D000C1799A98441C9AAD2C80484381B200204A
:1039E0009847A09800285BD0FFE79EA90020088098
:1039F000FFE79EA800880290A098FCF78FFC0022A9
:103A00009BA9895EFCF70EFD01460298491C88427D
:103A100045D2FFE79DA900200880FFE79DA8008808
:103A200000229BA9895E884224DAFFE7A098FCF770
:103A300075FC9DA909889EAA138800249BAA125F81
:103A40005A438918884201D2FFE713E0A0989DA944
:103A50000A889EAB1C8800259BAB5B5F6343D21832
:103A6000805C0A884AA98854FFE79D98401C9DA95C
:103A70000880D3E79DA801884AAA00205054314904
:103A8000CB68CC799A994D1C9AAE3580614389B246
:103A90009847FFE79E98401C9EA90880A9E7FFE78A
:103AA00021E0012001020AA8FCF7B7FC2548816843
:103AB000A3988847A098002809D0FFE7A29AA19B65
:103AC000A09800900B490AA8FCF712FC06E0A29A05
:103AD000A19B07490AA8FCF70BFCFFE7194881687E
:103AE0000AA88847FFE7FFE77FB025B070BDC04652
:103AF000784A00008D4A0000C84A0000D14A000000
:103B0000A64A000081B00090009800880D49088006
:103B10000098408848800098808888800098807944
:103B200088710098C079C871009880688860009892
:103B3000C068C860009800690861034901200870E6
:103B400001B07047340120205402202081B0009041
:103B5000009900200880009A08495180009A9180BD
:103B6000009AFF219171009AD171009988600099A3
:103B7000C8600099086101B07047C046FFFF0000AF
:103B8000704780B582B001900199002000F0DAFD05
:103B900002B080BD82B00190009102B0704710B5B4
:103BA00085B004900391039A049902918B79C879A6
:103BB0000002C318087A0404487A00060019C018E5
:103BC0008018020E4A72020C0A728871000AC871CB
:103BD000FFE7049901918A7CC87C00028218087D65
:103BE0000304487D0006C01880188B79CA79120238
:103BF000D2180B7A1B04497A0906C9188918884219
:103C00001FD8FFE7049900918A7CC87C00028218C3
:103C1000087D0304487D0006C01882188B79C87996
:103C20000002C318087A0404487A00060019C01874
:103C3000801A020E4A72020C0A728871000AC87158
:103C4000C7E705B010BD000010B586B0059004A808
:103C50000170039202930598411E88411C491D4A38
:103C6000FFF71CFD01A900200870FFE703980599E4
:103C7000020E4A71020C0A718870000AC870059918
:103C80000020009008700499059A517005994872B7
:103C90000872C8718871059948730873C872887270
:103CA00002980599020E4A74020C0A748873000A7D
:103CB000C87302980599020E4A75020C0A75887439
:103CC000000AC874FFE701A8007806B010BDC0461E
:103CD000DE4A00002202000010B592B0119010914F
:103CE0000F921198411E8841E449B022FFF7D6FC9B
:103CF0000EA9002008700D90FFE71098002804D14D
:103D0000FFE70EA903200870B3E1119800780521A0
:103D1000084204D0FFE70EA904200870A9E1119918
:103D200008780422104308700F9811998B7BCA7B86
:103D30001202D2180B7C1B04497C0906C918891889
:103D4000884200D98BE111990C918A7CC87C0002D1
:103D50008218087D0304487D0006C01880188B79FE
:103D6000CA791202D2180B7A1B04497A0906C918BB
:103D70008918401A0D900F980D99884200D8E5E0F7
:103D8000119840780B90002809D0FFE70B98012884
:103D900049D0FFE70B98022800D18DE0D5E01199BA
:103DA00009918A78C8780002821808790304487952
:103DB0000006C01880188B79CA791202D2180B7AC3
:103DC0001B04497A0906C9188918401810990D9AD8
:103DD000FCF7C6FA11980D99FFF7E1FE11990A91C7
:103DE0008A78C878000282180879030448790006A6
:103DF000C01880188B79CA791202D2180B7A1B046A
:103E0000497A0906C9188918401810990D9BC918D4
:103E10000F9AD21AFCF7A4FA11980F990D9A891AE1
:103E2000FFF7BDFE91E0119907918A78C8780002EA
:103E300082180879030448790006C01880188B7925
:103E4000CA791202D2180B7A1B04497A0906C918DA
:103E500089184900401810990D9A5200FCF780FA11
:103E600011980D99FFF79BFE119908918A78C878EF
:103E7000000282180879030448790006C0188018E7
:103E80008B79CA791202D2180B7A1B04497A090677
:103E9000C91889184900401810990D9B5A008918B3
:103EA0000F9AD21A5200FCF75BFA11980F990D9AEB
:103EB000891AFFF774FE48E0119905918A78C8784D
:103EC000000282180879030448790006C018801897
:103ED0008B79CA791202D2180B7A1B04497A090627
:103EE000C91889188900401810990D9A9200FCF79A
:103EF00037FA11980D99FFF752FE119906918A78B9
:103F0000C878000282180879030448790006C018AE
:103F100080188B79CA791202D2180B7A1B04497A5D
:103F20000906C91889188900401810990D9B9A0034
:103F300089180F9AD21A9200FCF7A6F911980F99D6
:103F40000D9A891AFFF72BFEFFE772E0119840786F
:103F50000490002808D0FFE70498012824D0FFE748
:103F60000498022842D063E0119903918A78C878B6
:103F7000000282180879030448790006C0188018E6
:103F80008B79CA791202D2180B7A1B04497A090676
:103F9000C9188918401810990F9AFCF7E1F911987F
:103FA0000F99FFF7FCFD43E0119902918A78C878D8
:103FB000000282180879030448790006C0188018A6
:103FC0008B79CA791202D2180B7A1B04497A090636
:103FD000C91889184900401810990F9A5200FCF727
:103FE000BFF911980F99FFF7DAFD21E011990191BE
:103FF0008A78C87800028218087903044879000694
:10400000C01880188B79CA791202D2180B7A1B0457
:10401000497A0906C91889188900401810990F9A19
:104020009200FCF79DF911980F99FFF7B8FDFFE793
:10403000FFE70F9A119900918B7BC87B0002C31890
:10404000087C0404487C00060019C018801A020E7F
:104050004A74020C0A748873000AC87303E00EA93C
:1040600005200870FFE711990878FB2210400870BE
:10407000FFE70EA8007812B010BDC046DE4A00006F
:1040800010B58AB009AC207008A8017007A90A70A1
:1040900006A90B70007810280AD1FFE708A801785C
:1040A00006A80078014001201029029014D0FFE7F3
:1040B00008A801780020002901900AD1FFE708A88C
:1040C000007806A9097808401038411E88410190FF
:1040D000FFE701980290FFE702980121084052494A
:1040E000A622FFF7DBFA09A80178490905AA117091
:1040F00000781F21084004A908700020039003984D
:104100004A490843039006A80078401E00901328EF
:104110004FD80098810001A0405887466D410000AB
:10412000734100007D41000087410000B341000061
:10413000B3410000B3410000B3410000B3410000AF
:10414000B3410000B3410000B3410000B34100009F
:10415000B3410000B3410000B341000091410000B1
:104160009B410000A5410000A741000000200390F2
:104170001FE003980121084303901AE003982E4999
:104180000843039015E003982A490843039010E080
:1041900003980121084303900BE003982449084346
:1041A000039006E005E003980121490608430390C7
:1041B000FFE7039805A90978490104AA12788A182B
:1041C0001E49895C89001E4A885008A8007810287A
:1041D00012D1FFE704A801780120884005A90978D9
:1041E0008A0032498958174A885009A8007807A9D7
:1041F000097800F029F8FFE706A80078032806D11F
:10420000FFE709A80078002100F01EF8FFE706A8E4
:104210000078042806D1FFE709A80078012100F002
:1042200013F8FFE70AB010BD094B0000800004003E
:104230000100000201000200010001003C4A0000F0
:1042400004804240D012000084B00A4603A90870DE
:1042500002A802700A78520901AB1A7009781F226D
:1042600011406A461170007800280ED0FFE76846BA
:1042700000780123834001A8007881000B48415851
:104280000B4A8858184388500EE06846007801238E
:10429000834001A8007881000448415895204201DC
:1042A000885818438850FFE704B0704780002020EA
:1042B0009012000080B582B0014601A80170002173
:1042C0004056FFF715F802B080BD80B582B00146B8
:1042D00001A8017000214056FFF724F802B080BD0C
:1042E00006480068002802D1FFE772B6FFE70348DE
:1042F0000168491C016000687047C0462002202008
:10430000704780B582B00A46014601A8017069462F
:104310000A70002280560978FFF71AF802B080BDB3
:1043200080B584B0002003901248FFF703F9FFF72F
:1043300009FAFEF741FEFFE701200190FEF786F93A
:104340007D208000029000F01DF800200090FEF714
:104350007DF9029800F016F80098FEF70DFE02981D
:1043600000F010F80198FEF707FE029800F00AF836
:10437000E2E7C04600B4C40482B00190009102B0EC
:104380007047704781B000900F491048086010498D
:10439000002008600F4905200860FFE70098411ED3
:1043A000009100280ED0FFE7FFE70A480068C0032D
:1043B000002801D4FFE7F8E7064908680122104306
:1043C0000860EBE701B0704714E000E080380100BE
:1043D00018E000E010E000E0704782B0019000912A
:1043E00002B0704710B594B013AC0A9420701291CB
:1043F00011921093119801040A0FC0B210211323D7
:10440000FEF7ECFF109801040A0FC0B2002104234C
:10441000FEF7E4FF0A9800780B90032830D80B9839
:10442000810001A040588746394400004B440000F9
:104430005D4400006F44000013A800788100D84854
:1044400040584249FEF7A4FC1BE013A80078810005
:10445000D34840583D49FEF79BFC12E013A8007872
:104460008100CF4840583949FEF792FC09E013A873
:1044700000788100CA4840583449FEF789FC00E0C2
:10448000FFE713A8079000788100C54806904058C0
:104490002F49FEF70BFC06980799097889004058C8
:1044A0000121C903FEF786FC0798017829482A4AAA
:1044B00008920329099001D0089809900998019061
:1044C0001298FCF798FC02460B46019900200490D4
:1044D000FCF70EFA049AFF239B05FCF78FFC0F9163
:1044E0000E900E980F99FCF727FC01460DA8059039
:1044F00001800E9902910F9903910088FCF773FCDB
:10450000024602980B460399FCF7CFF9049A134B25
:10451000FCF774FC049A124BFCF7BAF9FCF70CFC9C
:104520000599079B044606980CAA14801B789B00EB
:10453000C05809881288FEF705FC07990698097883
:1045400089004058FEF784FB14B010BD5F4B00009B
:10455000624B0000D0129341D012834100005040C2
:104560000000E03F80B584B003AA00921070029171
:104570000298411E884189499E22FFF78FF80098D2
:1045800001AA002111700078810085484058FEF78B
:10459000BBFB00280DD1FFE703A80078810080480D
:1045A0004058FEF7BBFB0299087001A90120087072
:1045B000FFE701A8007804B080BDC04610B58EB0FA
:1045C0000DAA10700CA8017000780B90052800D976
:1045D000B1E00B98810001A040588746F5450000E6
:1045E000314600006D460000A5460000D34600009D
:1045F000FF4600000DA80A900078810068484058E6
:104600000121C902FEF718FB0A990B784C48C25CDD
:10461000EF242240C2540978405C002807D1FFE70C
:104620000DA8017845484056FFF744FEFFE782E0B9
:104630000DA809900078810059484058012189024D
:10464000FEF7FAFA09990B783D48C25CFE24224035
:10465000C2540978405C002807D1FFE70DA8017813
:1046600036484056FFF726FEFFE764E00DA80890A5
:10467000007881004A480690405801210791C902FC
:10468000FEF7DAFA06980799089A1278920080588D
:104690008902FEF7D1FA0898017828484056FFF7BA
:1046A00009FE48E00DA80590007881003C4840587C
:1046B0000121C902FEF7D8FA05980378204AD15C97
:1046C00010242143D15401781C484056FFF7FDFDCA
:1046D00031E00DA804900078810031484058012451
:1046E000A102FEF7C1FA04980378154AD15C214370
:1046F000D154017811484056FFF7E7FD1BE00DA8A3
:1047000003900078810026480190405801210291D1
:10471000C902FEF7A9FA01980299039A1278920049
:1047200080588902FEF7A0FA0398017803484056A2
:10473000FFF7CBFDFFE70EB010BDC046B400202050
:104740005002202080B582B001AA1070009100981C
:10475000411E884111496C22FEF7A0FFFFE7009837
:104760000078002818D0FFE7FFE701A80078810053
:104770000B484058FEF7BEFA002801D0FFE7F4E7E7
:1047800001A8007881000648405800994A1C009210
:104790000978FEF71EFBE2E702B080BD344B000053
:1047A000B8002020F8B5040C8BB2264682B25E43D6
:1047B000104658430D0C370C36040021801916465C
:1047C00079416E43370C36048019264679416E4391
:1047D0008919F8BD4900CA020243100000D0042024
:1047E0004A0D01D001221043044A490D914201D1E2
:1047F00002210843012800D105207047FF0700006F
:1048000030380A2801D2012070470020704700008C
:1048100010B500290AD00878002807D00548784448
:10482000FDF7D0FE002801D0002010BD02487844DA
:1048300010BD0000720300006A03000010B50029DB
:104840000AD00878002807D005487844FDF7BAFE5A
:10485000002801D0002010BD0248784410BD00009F
:10486000620300005A03000003B4024878448446FF
:1048700003BC6047EDCFFFFF03B402487844844691
:1048800003BC604755D2FFFF80807F7E7D7C7B7AB2
:104890007978777676757473727171706F6E6E6DEC
:1048A0006C6C6B6A6A696868676666656464636392
:1048B00062616160605F5F5E5E5D5D5C5C5B5B5A18
:1048C0005A59595858575756565555555454535385
:1048D00052525251515050504F4F4F4E4E4D4D4DE0
:1048E0004C4C4C4B4B4B4A4A4A494949484848472B
:1048F0004747474646464545454444444443434369
:104900004342424242414141000000000000000099
:1049100030313233343536373839414243444546F5
:1049200040305800303132333435363738396162EF
:1049300063646566403078000400000800000000F1
:1049400000000002000100001030313233343536EF
:1049500037383961626364656678700030313233AC
:1049600034353637383941424344454658500000C3
:1049700002400000000000A0000000000540000010
:10498000000000C8000000000C4000000000409C37
:1049900000000000194000000020BCBE0000000024
:1049A00034400000BFC91B8E00000004B540000069
:1049B000504BCFD06607E2CF010000006C410000F1
:1049C0003E8251AADFEEA73401000000D942000068
:1049D000DCB5A0E23A301F97FFFFFFFFB4450000AF
:1049E000FD25A0C8E9A3C14FFFFFFFFFFF3F000067
:1049F0000000008000000000FF3F00000000008079
:104A000000000000000003000100000000000000A2
:104A10000000000000000000000000001000000086
:104A20000001000003000000000000003400C44149
:104A30000000000000000000000000000001060768
:104A400008090A0D121314152122232425262728CC
:104A5000292D2E3435363A3B020304050B0C0E0F7C
:104A60001011161718191A1B1C1D1E1F202A2B2C7B
:104A70002F303132333738390D0A66696C6520259D
:104A800073206C696E652025642E0D0A000D0A6680
:104A9000696C65202573206C696E652025643A2059
:104AA00025732E0D0A006C696E653A202564004C52
:104AB0006F67206D6573736167650041737365721D
:104AC00074206572726F720066696C653A20257396
:104AD0000066696C653A206D646B2F2573002E2E7D
:104AE0002F2E2E2F6C69627261726965732F7A6640
:104AF0005F636F6D6D6F6E2F7A665F636F6D6D6F45
:104B00006E5F6669666F2E63002E2E2F2E2E2F6C21
:104B100069627261726965732F7A665F6472697621
:104B200065722F7A665F6472697665725F67706915
:104B30006F2E63002E2E2F2E2E2F6C6962726172E3
:104B40006965732F7A665F6472697665722F7A661B
:104B50005F6472697665725F756172742E630008B6
:104B600000000000180000000030000000000000FD
:104B7000C04C000000002020D000000020010000F8
:104B8000904D0000D0002020881500004801000052
:104B90001C00000043000000F8FFFFFF0C000000B5
:104BA0000E0000000F0000002E00000010010000A9
:104BB00043000000F8FFFFFF0040404040404040FD
:104BC00040404141414141404040404040404040E0
:104BD0004040404040404040400502020202020284
:104BE00002020202020202020220202020202020D3
:104BF00020202002020202020202909090909090E7
:104C000010101010101010101010101010101010A4
:104C10001010101002020202020288888888888818
:104C20000808080808080808080808080808080804
:104C3000080808080202020240000000000000000C
:104C40000000000000000000000000000000000064
:104C50000000000000000000000000000000000054
:104C60000000000000000000000000000000000044
:104C70000000000000000000000000000000000034
:104C80000000000000000000000000000000000024
:104C90000000000000000000000000000000000014
:104CA0000000000000000000000000000000000004
:104CB00000000000000000000000000000000000F4
:104CC000953B0000953B0000953B0000953B0000A4
:104CD000953B0000953B0000953B0000953B000094
:104CE000953B0000953B0000953B0000953B000084
:104CF000953B0000953B0000953B0000953B000074
:104D0000953B0000953B0000953B0000953B000063
:104D1000953B0000953B0000953B0000953B000053
:104D2000953B0000953B0000953B0000953B000043
:104D3000953B0000953B0000953B0000953B000033
:104D400000000A4000200A40794300007943000037
:104D50007943000079430000794300007943000063
:104D600079430000DB430000DB430000DB4300002D
:104D7000DB4300000F0D0E030080104000001040C8
:104D80000020104000005040D94300000100000006
:04000005000000C136
:00000001FF
